{
	"data": {
		"bytecode": {
			"linkReferences": {},
			"object": "6080604052348015600e575f80fd5b506104d28061001c5f395ff3fe608060405260043610610033575f3560e01c8063074e5f12146100375780633fb5c1cb14610041578063f2c9ecd814610069575b5f80fd5b61003f610093565b005b34801561004c575f80fd5b50610067600480360381019061006291906102b9565b61017f565b005b348015610074575f80fd5b5061007d610188565b60405161008a91906102f3565b60405180910390f35b6100d26040518060400160405280600981526020017f6d73672e76616c7565000000000000000000000000000000000000000000000081525034610190565b670de0b6b3a764000034101561011d576040517f08c379a000000000000000000000000000000000000000000000000000000000815260040161011490610366565b60405180910390fd5b5f61012661022c565b90505f813461013591906103b1565b90503373ffffffffffffffffffffffffffffffffffffffff166108fc8290811502906040515f60405180830381858888f1935050505015801561017a573d5f803e3d5ffd5b505050565b805f8190555050565b5f8054905090565b61022882826040516024016101a6929190610441565b6040516020818303038152906040527fb60e72cc000000000000000000000000000000000000000000000000000000007bffffffffffffffffffffffffffffffffffffffffffffffffffffffff19166020820180517bffffffffffffffffffffffffffffffffffffffffffffffffffffffff8381831617835250505050610234565b5050565b5f6009905090565b61024b8161024361024e61026d565b63ffffffff16565b50565b5f6a636f6e736f6c652e6c6f6790505f80835160208501845afa505050565b610278819050919050565b61028061046f565b565b5f80fd5b5f819050919050565b61029881610286565b81146102a2575f80fd5b50565b5f813590506102b38161028f565b92915050565b5f602082840312156102ce576102cd610282565b5b5f6102db848285016102a5565b91505092915050565b6102ed81610286565b82525050565b5f6020820190506103065f8301846102e4565b92915050565b5f82825260208201905092915050565b7f4d7573742073656e64206174206c65617374206f6e65204574680000000000005f82015250565b5f610350601a8361030c565b915061035b8261031c565b602082019050919050565b5f6020820190508181035f83015261037d81610344565b9050919050565b7f4e487b71000000000000000000000000000000000000000000000000000000005f52601260045260245ffd5b5f6103bb82610286565b91506103c683610286565b9250826103d6576103d5610384565b5b828204905092915050565b5f81519050919050565b8281835e5f83830152505050565b5f601f19601f8301169050919050565b5f610413826103e1565b61041d818561030c565b935061042d8185602086016103eb565b610436816103f9565b840191505092915050565b5f6040820190508181035f8301526104598185610409565b905061046860208301846102e4565b9392505050565b7f4e487b71000000000000000000000000000000000000000000000000000000005f52605160045260245ffdfea2646970667358221220f78145f9b4c882195e7174a2c200e5f7c6d25c649d8aac8f0a18bbff6f3024f664736f6c634300081a0033",
			"opcodes": "PUSH1 0x80 PUSH1 0x40 MSTORE CALLVALUE DUP1 ISZERO PUSH1 0xE JUMPI PUSH0 DUP1 REVERT JUMPDEST POP PUSH2 0x4D2 DUP1 PUSH2 0x1C PUSH0 CODECOPY PUSH0 RETURN INVALID PUSH1 0x80 PUSH1 0x40 MSTORE PUSH1 0x4 CALLDATASIZE LT PUSH2 0x33 JUMPI PUSH0 CALLDATALOAD PUSH1 0xE0 SHR DUP1 PUSH4 0x74E5F12 EQ PUSH2 0x37 JUMPI DUP1 PUSH4 0x3FB5C1CB EQ PUSH2 0x41 JUMPI DUP1 PUSH4 0xF2C9ECD8 EQ PUSH2 0x69 JUMPI JUMPDEST PUSH0 DUP1 REVERT JUMPDEST PUSH2 0x3F PUSH2 0x93 JUMP JUMPDEST STOP JUMPDEST CALLVALUE DUP1 ISZERO PUSH2 0x4C JUMPI PUSH0 DUP1 REVERT JUMPDEST POP PUSH2 0x67 PUSH1 0x4 DUP1 CALLDATASIZE SUB DUP2 ADD SWAP1 PUSH2 0x62 SWAP2 SWAP1 PUSH2 0x2B9 JUMP JUMPDEST PUSH2 0x17F JUMP JUMPDEST STOP JUMPDEST CALLVALUE DUP1 ISZERO PUSH2 0x74 JUMPI PUSH0 DUP1 REVERT JUMPDEST POP PUSH2 0x7D PUSH2 0x188 JUMP JUMPDEST PUSH1 0x40 MLOAD PUSH2 0x8A SWAP2 SWAP1 PUSH2 0x2F3 JUMP JUMPDEST PUSH1 0x40 MLOAD DUP1 SWAP2 SUB SWAP1 RETURN JUMPDEST PUSH2 0xD2 PUSH1 0x40 MLOAD DUP1 PUSH1 0x40 ADD PUSH1 0x40 MSTORE DUP1 PUSH1 0x9 DUP2 MSTORE PUSH1 0x20 ADD PUSH32 0x6D73672E76616C75650000000000000000000000000000000000000000000000 DUP2 MSTORE POP CALLVALUE PUSH2 0x190 JUMP JUMPDEST PUSH8 0xDE0B6B3A7640000 CALLVALUE LT ISZERO PUSH2 0x11D JUMPI PUSH1 0x40 MLOAD PUSH32 0x8C379A000000000000000000000000000000000000000000000000000000000 DUP2 MSTORE PUSH1 0x4 ADD PUSH2 0x114 SWAP1 PUSH2 0x366 JUMP JUMPDEST PUSH1 0x40 MLOAD DUP1 SWAP2 SUB SWAP1 REVERT JUMPDEST PUSH0 PUSH2 0x126 PUSH2 0x22C JUMP JUMPDEST SWAP1 POP PUSH0 DUP2 CALLVALUE PUSH2 0x135 SWAP2 SWAP1 PUSH2 0x3B1 JUMP JUMPDEST SWAP1 POP CALLER PUSH20 0xFFFFFFFFFFFFFFFFFFFFFFFFFFFFFFFFFFFFFFFF AND PUSH2 0x8FC DUP3 SWAP1 DUP2 ISZERO MUL SWAP1 PUSH1 0x40 MLOAD PUSH0 PUSH1 0x40 MLOAD DUP1 DUP4 SUB DUP2 DUP6 DUP9 DUP9 CALL SWAP4 POP POP POP POP ISZERO DUP1 ISZERO PUSH2 0x17A JUMPI RETURNDATASIZE PUSH0 DUP1 RETURNDATACOPY RETURNDATASIZE PUSH0 REVERT JUMPDEST POP POP POP JUMP JUMPDEST DUP1 PUSH0 DUP2 SWAP1 SSTORE POP POP JUMP JUMPDEST PUSH0 DUP1 SLOAD SWAP1 POP SWAP1 JUMP JUMPDEST PUSH2 0x228 DUP3 DUP3 PUSH1 0x40 MLOAD PUSH1 0x24 ADD PUSH2 0x1A6 SWAP3 SWAP2 SWAP1 PUSH2 0x441 JUMP JUMPDEST PUSH1 0x40 MLOAD PUSH1 0x20 DUP2 DUP4 SUB SUB DUP2 MSTORE SWAP1 PUSH1 0x40 MSTORE PUSH32 0xB60E72CC00000000000000000000000000000000000000000000000000000000 PUSH28 0xFFFFFFFFFFFFFFFFFFFFFFFFFFFFFFFFFFFFFFFFFFFFFFFFFFFFFFFF NOT AND PUSH1 0x20 DUP3 ADD DUP1 MLOAD PUSH28 0xFFFFFFFFFFFFFFFFFFFFFFFFFFFFFFFFFFFFFFFFFFFFFFFFFFFFFFFF DUP4 DUP2 DUP4 AND OR DUP4 MSTORE POP POP POP POP PUSH2 0x234 JUMP JUMPDEST POP POP JUMP JUMPDEST PUSH0 PUSH1 0x9 SWAP1 POP SWAP1 JUMP JUMPDEST PUSH2 0x24B DUP2 PUSH2 0x243 PUSH2 0x24E PUSH2 0x26D JUMP JUMPDEST PUSH4 0xFFFFFFFF AND JUMP JUMPDEST POP JUMP JUMPDEST PUSH0 PUSH11 0x636F6E736F6C652E6C6F67 SWAP1 POP PUSH0 DUP1 DUP4 MLOAD PUSH1 0x20 DUP6 ADD DUP5 GAS STATICCALL POP POP POP JUMP JUMPDEST PUSH2 0x278 DUP2 SWAP1 POP SWAP2 SWAP1 POP JUMP JUMPDEST PUSH2 0x280 PUSH2 0x46F JUMP JUMPDEST JUMP JUMPDEST PUSH0 DUP1 REVERT JUMPDEST PUSH0 DUP2 SWAP1 POP SWAP2 SWAP1 POP JUMP JUMPDEST PUSH2 0x298 DUP2 PUSH2 0x286 JUMP JUMPDEST DUP2 EQ PUSH2 0x2A2 JUMPI PUSH0 DUP1 REVERT JUMPDEST POP JUMP JUMPDEST PUSH0 DUP2 CALLDATALOAD SWAP1 POP PUSH2 0x2B3 DUP2 PUSH2 0x28F JUMP JUMPDEST SWAP3 SWAP2 POP POP JUMP JUMPDEST PUSH0 PUSH1 0x20 DUP3 DUP5 SUB SLT ISZERO PUSH2 0x2CE JUMPI PUSH2 0x2CD PUSH2 0x282 JUMP JUMPDEST JUMPDEST PUSH0 PUSH2 0x2DB DUP5 DUP3 DUP6 ADD PUSH2 0x2A5 JUMP JUMPDEST SWAP2 POP POP SWAP3 SWAP2 POP POP JUMP JUMPDEST PUSH2 0x2ED DUP2 PUSH2 0x286 JUMP JUMPDEST DUP3 MSTORE POP POP JUMP JUMPDEST PUSH0 PUSH1 0x20 DUP3 ADD SWAP1 POP PUSH2 0x306 PUSH0 DUP4 ADD DUP5 PUSH2 0x2E4 JUMP JUMPDEST SWAP3 SWAP2 POP POP JUMP JUMPDEST PUSH0 DUP3 DUP3 MSTORE PUSH1 0x20 DUP3 ADD SWAP1 POP SWAP3 SWAP2 POP POP JUMP JUMPDEST PUSH32 0x4D7573742073656E64206174206C65617374206F6E6520457468000000000000 PUSH0 DUP3 ADD MSTORE POP JUMP JUMPDEST PUSH0 PUSH2 0x350 PUSH1 0x1A DUP4 PUSH2 0x30C JUMP JUMPDEST SWAP2 POP PUSH2 0x35B DUP3 PUSH2 0x31C JUMP JUMPDEST PUSH1 0x20 DUP3 ADD SWAP1 POP SWAP2 SWAP1 POP JUMP JUMPDEST PUSH0 PUSH1 0x20 DUP3 ADD SWAP1 POP DUP2 DUP2 SUB PUSH0 DUP4 ADD MSTORE PUSH2 0x37D DUP2 PUSH2 0x344 JUMP JUMPDEST SWAP1 POP SWAP2 SWAP1 POP JUMP JUMPDEST PUSH32 0x4E487B7100000000000000000000000000000000000000000000000000000000 PUSH0 MSTORE PUSH1 0x12 PUSH1 0x4 MSTORE PUSH1 0x24 PUSH0 REVERT JUMPDEST PUSH0 PUSH2 0x3BB DUP3 PUSH2 0x286 JUMP JUMPDEST SWAP2 POP PUSH2 0x3C6 DUP4 PUSH2 0x286 JUMP JUMPDEST SWAP3 POP DUP3 PUSH2 0x3D6 JUMPI PUSH2 0x3D5 PUSH2 0x384 JUMP JUMPDEST JUMPDEST DUP3 DUP3 DIV SWAP1 POP SWAP3 SWAP2 POP POP JUMP JUMPDEST PUSH0 DUP2 MLOAD SWAP1 POP SWAP2 SWAP1 POP JUMP JUMPDEST DUP3 DUP2 DUP4 MCOPY PUSH0 DUP4 DUP4 ADD MSTORE POP POP POP JUMP JUMPDEST PUSH0 PUSH1 0x1F NOT PUSH1 0x1F DUP4 ADD AND SWAP1 POP SWAP2 SWAP1 POP JUMP JUMPDEST PUSH0 PUSH2 0x413 DUP3 PUSH2 0x3E1 JUMP JUMPDEST PUSH2 0x41D DUP2 DUP6 PUSH2 0x30C JUMP JUMPDEST SWAP4 POP PUSH2 0x42D DUP2 DUP6 PUSH1 0x20 DUP7 ADD PUSH2 0x3EB JUMP JUMPDEST PUSH2 0x436 DUP2 PUSH2 0x3F9 JUMP JUMPDEST DUP5 ADD SWAP2 POP POP SWAP3 SWAP2 POP POP JUMP JUMPDEST PUSH0 PUSH1 0x40 DUP3 ADD SWAP1 POP DUP2 DUP2 SUB PUSH0 DUP4 ADD MSTORE PUSH2 0x459 DUP2 DUP6 PUSH2 0x409 JUMP JUMPDEST SWAP1 POP PUSH2 0x468 PUSH1 0x20 DUP4 ADD DUP5 PUSH2 0x2E4 JUMP JUMPDEST SWAP4 SWAP3 POP POP POP JUMP JUMPDEST PUSH32 0x4E487B7100000000000000000000000000000000000000000000000000000000 PUSH0 MSTORE PUSH1 0x51 PUSH1 0x4 MSTORE PUSH1 0x24 PUSH0 REVERT INVALID LOG2 PUSH5 0x6970667358 0x22 SLT KECCAK256 0xF7 DUP2 GASLIMIT 0xF9 0xB4 0xC8 DUP3 NOT MCOPY PUSH18 0x74A2C200E5F7C6D25C649D8AAC8F0A18BBFF PUSH16 0x3024F664736F6C634300081A00330000 "
		},
		"gasEstimates": {
			"creation": {
				"codeDepositCost": "246800",
				"executionCost": "285",
				"totalCost": "247085"
			},
			"external": {
				"getNumber()": "2454",
				"payMeBackLess()": "infinite",
				"setNumber(uint256)": "22514"
			},
			"internal": {
				"getRandomNumber()": "22"
			}
		},
		"methodIdentifiers": {
			"getNumber()": "f2c9ecd8",
			"payMeBackLess()": "074e5f12",
			"setNumber(uint256)": "3fb5c1cb"
		}
	},
	"abi": [
		{
			"inputs": [],
			"name": "getNumber",
			"outputs": [
				{
					"internalType": "uint256",
					"name": "",
					"type": "uint256"
				}
			],
			"stateMutability": "view",
			"type": "function"
		},
		{
			"inputs": [],
			"name": "payMeBackLess",
			"outputs": [],
			"stateMutability": "payable",
			"type": "function"
		},
		{
			"inputs": [
				{
					"internalType": "uint256",
					"name": "newNumber",
					"type": "uint256"
				}
			],
			"name": "setNumber",
			"outputs": [],
			"stateMutability": "nonpayable",
			"type": "function"
		}
	]
}